:100000000C942A000C948D020C9447000C94470029
:100010000C9447000C9447000C9447000C94470044
:100020000C9447000C9447000C9447000C94470034
:100030000C9447000C9447000C9447000C94470024
:100040000C9447000C9447000C9447000C948F01CB
:100050000C94470011241FBECFE5D8E0DEBFCDBF12
:1000600010E0A0E6B0E0E0E1FCE002C005900D92F7
:10007000A637B107D9F711E0A6E7B0E001C01D929D
:10008000A234B107E1F70E9448020C9406060C94D2
:10009000000088B3806F88BBC29A87B38F7087BB1C
:1000A00086B3C298C29A96B3C29892959F70807F89
:1000B000892B089598B39F70282F207F292B28BB68
:1000C000C29AC2988295807F982B98BBC29AC29898
:1000D000089588BBC29AC29808950F931F93DF9327
:1000E000CF930F92CDB7DEB78E010F5F1F4FC09831
:1000F000C19A0E9449008983F80180818823BCF35A
:10010000C1988FEF87BB0F90CF91DF911F910F9117
:1001100008958FEF87BB87BBC098C198C298C29AD9
:10012000C59AC2980E946D0088E20E945A000E94FF
:100130006D00C0988CE00E945A000E946D00C0982B
:1001400086E00E945A000E946D000895C09882E0E7
:100150000E945A000E946D000895C0988295880FF1
:10016000880F807C860F815C0E945A000E946D007F
:100170000895C09881E00E945A000E946D00089581
:10018000C09A0E945A000E946D0008951F93CF9359
:10019000DF93EC018881882351F010E00E94C000B9
:1001A0001F5FFE01E10FF11D80818823B9F7DF9108
:1001B000CF911F91089511B880E280B980917500A8
:1001C000880F8F5F82B985E486BF089596B79E7FBA
:1001D00096BF94EA96BF06B607FEFDCF91B1987F11
:1001E000983029F00E94DB0081B1887F0895880F44
:1001F00083B984E886BF06B607FEFDCF81B1887F4C
:10020000883131F4242F30E01216130634F01DC06B
:100210000E94DB0081B1887F0895E62FF72F80E0F0
:1002200090E054E8419143B956BF06B607FEFDCFB2
:1002300041B1487F483229F00E94DB0081B1887FBC
:1002400008950196821793076CF384E986BF0E9494
:10025000DB0080E008951F9396B79E7F96BF94EAD7
:1002600096BF06B607FEFDCF11B1187F183029F0F2
:1002700084E986BF0E94DB004FC0880F8F5F83B97F
:1002800084E886BF06B607FEFDCF11B1187F103493
:1002900041F4242F30E0215030401216130634F080
:1002A0001FC084E986BF0E94DB0036C0FB0180E0EE
:1002B00090E0A4ECA6BF06B607FC05C011B1187FFC
:1002C00006B607FEFBCF103529F084E986BF0E94F1
:1002D000DB0022C053B1519301968217930754F368
:1002E00084E886BF06B607FC05C011B1187F06B6C4
:1002F00007FEFBCF183529F084E986BF0E94DB009A
:100300000BC083B1640F711DFB013197808384E9B9
:1003100086BF0E94DB0010E0812F1F9108951F927D
:100320000F920FB60F9211248F939F93EF93FF9329
:1003300081B18BBB883909F463C0893980F4803876
:1003400049F1813830F48036E9F0803709F097C000
:100350003FC0883871F1803909F091C042C0803BBC
:1003600009F47EC0813B38F4803A09F458C0883AD9
:1003700009F085C058C0883B09F466C0803C09F08C
:100380007EC07AC0109278001092770086B7806C99
:1003900086BF75C08091770093B1E9E7F0E0E80F80
:1003A000F11D90838F5F8093770086B7806C86BF46
:1003B00066C08091770093B1E9E7F0E0E80FF11DA6
:1003C00090838F5F8093770086B7806C86BF57C01D
:1003D00081E0809378001092770086B7806C86BFAA
:1003E0004EC08091770093B1E9E7F0E0E80FF11D8E
:1003F00090838F5F8093770086B7806C86BF3FC005
:100400008091770093B1E9E7F0E0E80FF11D908368
:100410008F5F8093770086B7806C86BF30C086B7C9
:10042000806C86BF2CC0809176008F5F80937600B1
:1004300080917600EEEDF0E0E80FF11D808183B948
:1004400086B7806C86BF1BC080917600EEEDF0E031
:10045000E80FF11D808183B986B7806C86BF0FC01D
:1004600080917600EEEDF0E0E80FF11D808183B918
:1004700086B7806C86BF03C086B7806C86BFFF914D
:10048000EF919F918F910F900FBE0F901F90189535
:100490000F931F93DF93CF93CDB7DEB7E2970FB6DD
:1004A000F894DEBF0FBECDBF0E94DB000E94890022
:1004B0000E94B9008FEF82BB11BA85B7826085BFF9
:1004C0008BB780648BBF789487EA91E60197F1F748
:1004D00000C000008E010F5F1F4FF80180E0819384
:1004E0008F5F8233E1F782E0BE016F5F7F4F48E2AA
:1004F0000E94E60080E0F80181938F018E5F8436D0
:10050000D1F783E0BE016F5F7F4F42E30E94E600B8
:1005100080E690E00E94C600FFCF1F920F920FB6B8
:100520000F921124EF92FF920F931F932F933F93FB
:100530004F935F936F937F938F939F93AF93BF93EB
:10054000EF93FF93DF93CF93CDB7DEB72797DEBF4F
:10055000CDBF80B383708093DD008091DD00BE014C
:100560006F5F7F4F41E00E942B0181E06CE00E94B1
:10057000AD008091DD0000D000D000D0EDB7FEB717
:1005800031968E010D5F1F4FADB7BEB712961C930B
:100590000E9311970F2EFEE6EF2EF0E0FF2EF02DBA
:1005A000F382E282848315820E9425038DB79EB771
:1005B00006960FB6F8949EBF0FBE8DBFC8010E946D
:1005C000C60000D000D000D0EDB7FEB73196ADB771
:1005D000BEB712961C930E931197F382E282898123
:1005E000848315820E9425038DB79EB706960FB6A9
:1005F000F8949EBF0FBE8DBF82E061E00E94AD0007
:1006000081E790E00E94C60082E061E00E94AD00B8
:10061000C8010E94C6002796DEBFCDBFCF91DF91F3
:10062000FF91EF91BF91AF919F918F917F916F91CA
:100630005F914F913F912F911F910F91FF90EF90FC
:100640000F900FBE0F901F901895AEE0B0E0EBE258
:10065000F3E00C94DD050D891E8986E08C831A83F6
:1006600009838FEF9FE79E838D839E01275E3F4F17
:10067000CE0101966F89788DA9010E944803EF8110
:10068000F885E00FF11F10822E96E4E00C94F90536
:10069000ACE0B0E0EEE4F3E00C94CF056C011B019C
:1006A0008A01FC0117821682838181FFD1C12E014C
:1006B0000894411C511CF6019381F10193FD859131
:1006C00093FF81911F01882309F4BEC1853239F45B
:1006D00093FD859193FF81911F01853229F490E06C
:1006E000B6010E944505E7CFEE24FF2420E020322A
:1006F000B0F48B3269F08C3228F4803251F08332BE
:1007000071F40BC08D3239F0803349F421602CC074
:100710002260246029C0286027C0206125C027FDF1
:100720002CC0382F30533A3098F426FF08C08E2D55
:10073000880FE82EEE0CEE0CE80EE30E15C08F2DA0
:10074000880FF82EFF0CFF0CF80EF30E20620CC081
:100750008E3221F426FD78C1206406C08C3611F457
:10076000206802C0883649F4F10193FD859193FF1A
:1007700081911F01882309F0BACF982F95549330A7
:1007800018F09052933028F40C5F1F4FFFE3F98369
:100790000DC0833631F0833771F0833509F060C0C6
:1007A00022C0F801808189830E5F1F4F420171E0F2
:1007B000A72EB12C16C062E0662E712C600E711E41
:1007C000F8018080918026FF03C06E2D70E002C08A
:1007D0006FEF7FEFC4012C870E943A055C01830113
:1007E0002C852F7717C052E0652E712C600E711E7C
:1007F000F8018080918026FF03C06E2D70E002C05A
:100800006FEF7FEFC4012C870E942F055C012C85C0
:100810002068830123FD20C008C080E290E0B6017B
:100820002C870E944505FA942C858F2D90E0A81600
:10083000B90698F311C0F40127FD859127FF819136
:100840004F0190E0B6012C870E9445052C85F110E0
:10085000FA940894A108B108A114B10461F7F1C099
:10086000843611F0893649F527FF08C0F801608108
:100870007181828193810C5F1F4F09C0F8016081F3
:100880007181882777FD8095982F0E5F1F4F4FE667
:10089000B42EB22297FF09C090958095709561950E
:1008A0007F4F8F4F9F4FF0E8BF2AA2012AE030E030
:1008B0000E947105782E741845C0853731F43FEEDB
:1008C000B32EB2222AE030E025C099EFB92EB22231
:1008D0008F36C1F0803720F4883509F0B5C00DC0DF
:1008E000803721F0883709F0AFC002C020E1B22A7A
:1008F000B4FE0BC084E0B82A08C0B4FE09C0E6E02C
:10090000BE2A06C028E030E005C020E130E002C089
:1009100020E132E0B7FE08C0F80160817181828178
:1009200093810C5F1F4F07C0F8016081718180E0E7
:1009300090E00E5F1F4FA2010E947105782E74187F
:10094000FFE7BF22B6FE0BC02EEFB2227E1438F4B2
:10095000B4FE07C0B2FC05C08FEEB82202C0A72CBF
:1009600001C0AE2C8B2D90E0B4FE0DC0FE01E70D52
:10097000F11D2081203319F4E9EEBE2209C0A394B1
:10098000B2FE06C004C086789070009709F0A39468
:100990008B2C9924B3FC14C0B0FE0FC0AF1428F404
:1009A000E72CEF0CEA18AF2C08C0E72C06C080E259
:1009B00090E0B6010E944505A394AF14C0F304C0B3
:1009C000AF1410F4FA1801C0FF2484FE0FC080E3B6
:1009D00090E0B6010E94450582FE1FC081FE03C063
:1009E00088E590E010C088E790E00DC0C4018678EB
:1009F0009070009791F081FC02C080E201C08BE210
:100A0000B7FC8DE290E0B6010E94450506C080E388
:100A100090E0B6010E944505EA947E14C0F37A94F2
:100A2000F201E70DF11D808190E0B6010E944505BD
:100A30007720A9F706C080E290E0B6010E94450544
:100A4000FA94FF20C1F737CEF6012681378102C024
:100A50002FEF3FEFC9012C96E2E10C94EB05FC016E
:100A60000590615070400110D8F7809590958E0FD9
:100A70009F1F0895FC016150704001900110D8F74C
:100A8000809590958E0F9F1F08950F931F93CF937E
:100A9000DF938C01EB018B8181FF1BC082FF0DC0B6
:100AA0002E813F818C819D812817390764F4E8816C
:100AB000F9810193F983E88306C0E885F985802FE1
:100AC0000995009731F48E819F8101969F838E83D3
:100AD00002C00FEF1FEFC801DF91CF911F910F915F
:100AE0000895FA01AA27283051F1203181F1E894C4
:100AF0006F936E7F6E5F7F4F8F4F9F4FAF4FB1E011
:100B00003ED0B4E03CD0670F781F891F9A1FA11D0B
:100B1000680F791F8A1F911DA11D6A0F711D811D0C
:100B2000911DA11D20D009F468943F912AE0269FD1
:100B300011243019305D3193DEF6CF010895462F30
:100B40004770405D4193B3E00FD0C9F7F6CF462F11
:100B50004F70405D4A3318F0495D31FD405241937A
:100B600002D0A9F7EACFB4E0A69597958795779537
:100B70006795BA95C9F700976105710508959B01BE
:100B8000AC010A2E06945795479537952795BA9547
:100B9000C9F7620F731F841F951FA01D08952F9220
:100BA0003F924F925F926F927F928F929F92AF92FD
:100BB000BF92CF92DF92EF92FF920F931F93CF934A
:100BC000DF93CDB7DEB7CA1BDB0B0FB6F894DEBFE1
:100BD0000FBECDBF09942A88398848885F846E8407
:100BE0007D848C849B84AA84B984C884DF80EE8051
:100BF000FD800C811B81AA81B981CE0FD11D0FB65A
:100C0000F894DEBF0FBECDBFED010895F894FFCF7D
:100C100046726F6D20536C617665203A200025691D
:060C20000020202000016D
:00000001FF
