:100000000C942A000C943F000C943F000C943F0089
:100010000C943F000C943F000C943F000C943F0064
:100020000C943F000C943F000C943F000C943F0054
:100030000C943F000C943F000C943F000C943F0044
:100040000C943F000C943F000C943F000C943F0034
:100050000C943F0011241FBECFE5D8E0DEBFCDBF1A
:1000600010E0A0E6B0E0E4E7F2E002C005900D92F7
:10007000AC37B107D9F70E9427010C9438010C94D2
:100080000000E82FF92FDF010D900020E9F79D0116
:10009000215030402E1B3F0B822F932F08958BB39E
:1000A000806F8BBB8AB38F708ABBDA9A8AB38F70EA
:1000B0008ABB89B3DA98DA9A99B3DA9892959F70E5
:1000C000807F892B08959BB39F70282F207F292B39
:1000D0002BBBDA9ADA988295807F982B9BBBDA9AB1
:1000E000DA9808958BBBDA9ADA9808950F931F93E4
:1000F000DF93CF930F92CDB7DEB78E010F5F1F4F07
:10010000D898D99A0E944F008983F801808188236A
:10011000BCF3D9988FEF8ABB0F90CF91DF911F91DD
:100120000F9108958FEF8ABB8ABBD898D998DA9837
:10013000DA9ADD9ADA980E94760088E20E946300DB
:100140000E947600D8988EE00E9463000E9476009C
:10015000D89886E00E9463000E9476000895D8989F
:1001600082E00E9463000E9476000895D8988295EC
:10017000880F880F807C860F815C0E9463000E943C
:1001800076000895D89881E00E9463000E9476006E
:100190000895D89A0E9463000E9476000895CF9235
:1001A000DF92EF92FF920F931F93CF93DF93D82E9E
:1001B000C92EE82FF92FDF010D900020E9F71197E4
:1001C000A81BA03170F4EA2EFF24C0E1D0E0CE19C4
:1001D000DF090AF42196D595C7951C161D06A4F0D3
:1001E0001DC0EA2EFF241E141F0444F50D2D1C2DE6
:1001F000C0E0D0E0F80181918F010E94C9002196F2
:10020000CE15DF05BCF31AC000E010E080E20E94CA
:10021000C9000F5F1F4F0C171D07C4F31E141F04E6
:100220006CF40D2D1C2DC0E0D0E0F80181918F0100
:100230000E94C9002196CE15DF05BCF3DF91CF9156
:100240001F910F91FF90EF90DF90CF9008950E9443
:1002500092000E94C20080E690E00E94CF0082E0FF
:1002600061E00E94B6008AE690E00E94CF00FFCFD6
:04027000F894FFCF30
:100274003132333435363738390032783136204C20
:0C028400434420446973706C61790000F1
:00000001FF
