:100000000C942A000C943F000C943F000C943F0089
:100010000C943F000C943F000C943F000C943F0064
:100020000C943F000C943F000C943F000C943F0054
:100030000C943F000C943F000C943F000C943F0044
:100040000C943F000C943F000C943F000C943F0034
:100050000C943F0011241FBECFE5D8E0DEBFCDBF1A
:1000600010E0A0E6B0E0EEE6F2E002C005900D92EE
:10007000AC37B107D9F70E9424010C9435010C94D8
:100080000000E82FF92FDF010D900020E9F79D0116
:10009000215030402E1B3F0B822F932F089588B3A1
:1000A000806F88BBC29A87B38F7087BB86B3C298B4
:1000B000C29A96B3C29892959F70807F892B0895BB
:1000C00098B39F70282F207F292B28BBC29AC298F3
:1000D0008295807F982B98BBC29AC298089588BB5E
:1000E000C29AC29808950F931F93DF93CF930F92F4
:1000F000CDB7DEB78E010F5F1F4FC098C19A0E9427
:100100004F008983F80180818823BCF3C1988FEF69
:1001100087BB0F90CF91DF911F910F9108958FEFC3
:1001200087BB87BBC098C198C298C29AC59AC2982B
:100130000E94730088E20E9460000E947300C098D1
:100140008EE00E9460000E947300C09886E00E94CA
:1001500060000E9473000895C09882E00E946000D1
:100160000E9473000895C0988295880F880F807C44
:10017000860F815C0E9460000E9473000895C09801
:1001800081E00E9460000E9473000895C09A0E945E
:1001900060000E9473000895CF92DF92EF92FF9269
:1001A0000F931F93CF93DF93D82EC92EE82FF92FEB
:1001B000DF010D900020E9F71197A81BA03170F422
:1001C000EA2EFF24C0E1D0E0CE19DF090AF421961F
:1001D000D595C7951C161D06A4F01DC0EA2EFF2458
:1001E0001E141F0444F50D2D1C2DC0E0D0E0F801B5
:1001F00081918F010E94C6002196CE15DF05BCF3C8
:100200001AC000E010E080E20E94C6000F5F1F4F9E
:100210000C171D07C4F31E141F046CF40D2D1C2DA8
:10022000C0E0D0E0F80181918F010E94C6002196C4
:10023000CE15DF05BCF3DF91CF911F910F91FF9099
:10024000EF90DF90CF9008950E948F000E94BF0032
:1002500080E690E00E94CC0082E061E00E94B30062
:0E0260008AE690E00E94CC00FFCFF894FFCF1A
:10026E003132333435363738390032783136204C26
:0C027E00434420446973706C61790000F7
:00000001FF
