:100000000C945A020C9464020C9464020C946402E2
:100010000C9464020C9464020C9464020C946402C8
:100020000C9464020C9464020C9464020C946402B8
:100030000C9464020C9464020C9464020C946402A8
:100040000C9464020C9464020C9464020C94640298
:100050000C946402000000000000007D00000070AD
:10006000007000147F147F14122A7F2A246264080F
:10007000132336495522050050600000001C224120
:10008000000041221C0014083E081408083E08081D
:100090000005060000080808080800030300000225
:1000A000040810203E4549513E00217F01002143B4
:1000B00045493142415169460C14247F0472515123
:1000C000514E1E2949490640474850603649494922
:1000D000363049494A3C00363600000035360000CB
:1000E000081422410014141414144122140800208E
:1000F0004045483026494F413E3F4444443F7F49B4
:100100004949363E414141227F4141413E7F494973
:1001100049417F484848403E4149492F7F080808E7
:100120007F00417F41000201417E407F081422414F
:100130007F010101017F4020407F7F1008047F3E46
:100140004141413E7F484848303E4145423D7F481D
:100150004C4A31314949494640407F40407E010187
:10016000017E7C0201027C7E010E017E6314081474
:100170006370080708704345495161007F414100A1
:1001800054341F34540041417F001020402010019E
:10019000010101010040201000021515150F7F0913
:1001A00011110E0E111111020E1111097F0E1515EC
:1001B000150C083F484020304949497E7F081010FF
:1001C0000F00115F01000201217E007F040A11006F
:1001D00000417F01001F100C100F1F0810100F0EA0
:1001E0001111110E1F141414080814140C1F1F08E9
:1001F0001010080915151512207E2101021E01019B
:10020000021F1C0201021C1E0106011E110A040A23
:1002100011180505051E11131519110008364100A6
:1002200000007F0000004136080008082A1C08086A
:100230001C2A080800000000000000000000000068
:1002400000000000000000000000000000000000AE
:10025000000000000000000000000000000000009E
:10026000000000000000000000000000000000008E
:10027000000000000000000000000000000000007E
:10028000000000000000000000000000000000006E
:10029000000000000000000000000000000000005E
:1002A000000000000000000000000000000000004E
:1002B000000000000000000000000000000000003E
:1002C000000000000000000000000000000000002E
:1002D000000000000000000000070507000000000B
:1002E00078404001010F00000402010000000C0CE6
:1002F00000002828292A3C101116141802040F1097
:10030000000C0819090E09090F0909090A0C1F0830
:10031000081F080A0C0109090F011515151F000C0B
:10032000000D010E040404040440415E48700408FA
:100330001F2040382061223C11111F111122242856
:100340007F20217E20213E28287F28280831212255
:100350003C1060213E20212121213F2079227C2058
:10036000292901021C2122242A31207E2129313011
:100370000901023C083129263C28293E4808300062
:1003800031023C10515E5010007F08040011127CB5
:1003900010100121212101212A242A3022246F3426
:1003A000220001027C000F0020100F7E111111119C
:1003B000202121223C102010080626207F20262004
:1003C00024222538002A2A2A010E12220207010AB5
:1003D000040A30283E292929107F101418012121F0
:1003E0003F01292929293F105051521C7801027CD4
:1003F000001F003F01063F010204083F2121213F69
:10040000382021223C212101020C201040200070C4
:10041000507000000E11090619025515550F1F2ABC
:100420002A2A140A151511023F0202043E0E111960
:1004300015120F1222221C1C2222223F02011E1022
:100440001020200070000000105F0028102800001D
:1004500018247E2408147F1501011F4850500F0EE8
:100460005111510E3F1222221C1C2222123F3C52DB
:1004700052523C03050205061A2620261A1E410187
:10048000421F6355494141223C203E22514A444A81
:10049000513C0202023F28283E2848223C28282EB0
:1004A0003E2838283E040415040400000000007FA4
:1004B0007F7F7F7F11241FBECFE5D8E0DEBFCDBF99
:1004C0000E9483020C948A020C94000095E0899F9C
:1004D000C00111249C01205A30408B59904061E0AA
:1004E00048EE53E065BBF901EC5AFF4FE491E0950B
:1004F000E2BB660FFA013197F1F72F5F3F4F2817E4
:10050000390781F708958FEF81BB84BB84E30E9494
:080510006602FCCFF894FFCF56
:00000001FF
