:100000000C942A000C9447000C9447000C94470071
:100010000C9447000C9447000C9447000C94470044
:100020000C9447000C9447000C9447000C94470034
:100030000C94EE000C9447000C9447000C9447007D
:100040000C9447000C9447000C9447000C94470014
:100050000C94470011241FBECFE5D8E0DEBFCDBF12
:1000600010E0A0E6B0E0E0E6F8E002C005900D92F6
:10007000A436B107D9F710E0A4E6B0E001C01D92A4
:10008000A536B107E1F70E94E6000C942E040C940B
:10009000000082B3806F82BB929A81B38F7081BB64
:1000A00080B39298929A90B3929892959F70807F25
:1000B000892B089592B39F70282F207F292B22BB74
:1000C000929A92988295807F982B92BB929A92985E
:1000D000089582BB929A929808950F931F93DF938D
:1000E000CF930F92CDB7DEB78E010F5F1F4F909861
:1000F000919A0E9449008983F80180818823BCF38A
:1001000091988FEF81BB0F90CF91DF911F910F914D
:1001100008958FEF81BB81BB909891989298929AA5
:10012000959A92980E946D0088E20E945A000E945F
:100130006D0090988EE00E945A000E946D00909889
:1001400086E00E945A000E946D000895909882E017
:100150000E945A000E946D00089590988295880F21
:10016000880F807C860F815C0E945A000E946D007F
:100170000895909881E00E945A000E946D000895B1
:10018000909A0E945A000E946D0008951F93CF9389
:10019000DF93EC018881882351F010E00E94C000B9
:1001A0001F5FFE01E10FF11D80818823B9F7DF9108
:1001B000CF911F910895BE9A88B3806388BB87EC66
:1001C0008DB908958FB9779BFECF089578940E94DA
:1001D000DB000E9489000E94B900FFCF1F920F929E
:1001E0000FB60F9211240F931F932F933F934F93AA
:1001F0005F936F937F938F939F93AF93BF93EF938F
:10020000FF93DF93CF93CDB7DEB72597DEBFCDBF8A
:100210008FB1809364000E94B9002091640000D0E7
:1002200000D000D0EDB7FEB731968E010F5F1F4FA3
:10023000ADB7BEB712961C930E93119780E690E06F
:1002400093838283248315820E944D018DB79EB7CC
:1002500006960FB6F8949EBF0FBE8DBF81E061E099
:100260000E94AD00C8010E94C6002596DEBFCDBF2A
:10027000CF91DF91FF91EF91BF91AF919F918F91BE
:100280007F916F915F914F913F912F911F910F91AE
:100290000F900FBE0F901F901895AEE0B0E0E3E511
:1002A000F1E00C9405040D891E8986E08C831A8385
:1002B00009838FEF9FE79E838D839E01275E3F4FCB
:1002C000CE0101966F89788DA9010E947001EF819E
:1002D000F885E00FF11F10822E96E4E00C942104C3
:1002E000ACE0B0E0E6E7F1E00C94F7036C011B0131
:1002F0008A01FC0117821682838181FFD1C12E0100
:100300000894411C511CF6019381F10193FD8591E4
:1003100093FF81911F01882309F4BEC1853239F40E
:1003200093FD859193FF81911F01853229F490E01F
:10033000B6010E946D03E7CFEE24FF2420E02032B7
:10034000B0F48B3269F08C3228F4803251F0833271
:1003500071F40BC08D3239F0803349F421602CC028
:100360002260246029C0286027C0206125C027FDA5
:100370002CC0382F30533A3098F426FF08C08E2D09
:10038000880FE82EEE0CEE0CE80EE30E15C08F2D54
:10039000880FF82EFF0CFF0CF80EF30E20620CC035
:1003A0008E3221F426FD78C1206406C08C3611F40B
:1003B000206802C0883649F4F10193FD859193FFCE
:1003C00081911F01882309F0BACF982F955493305B
:1003D00018F09052933028F40C5F1F4FFFE3F9831D
:1003E0000DC0833631F0833771F0833509F060C07A
:1003F00022C0F801808189830E5F1F4F420171E0A6
:10040000A72EB12C16C062E0662E712C600E711EF4
:10041000F8018080918026FF03C06E2D70E002C03D
:100420006FEF7FEFC4012C870E9462035C018301A0
:100430002C852F7717C052E0652E712C600E711E2F
:10044000F8018080918026FF03C06E2D70E002C00D
:100450006FEF7FEFC4012C870E9457035C012C854E
:100460002068830123FD20C008C080E290E0B6012F
:100470002C870E946D03FA942C858F2D90E0A8168E
:10048000B90698F311C0F40127FD859127FF8191EA
:100490004F0190E0B6012C870E946D032C85F1106E
:1004A000FA940894A108B108A114B10461F7F1C04D
:1004B000843611F0893649F527FF08C0F8016081BC
:1004C0007181828193810C5F1F4F09C0F8016081A7
:1004D0007181882777FD8095982F0E5F1F4F4FE61B
:1004E000B42EB22297FF09C09095809570956195C2
:1004F0007F4F8F4F9F4FF0E8BF2AA2012AE030E0E4
:100500000E949903782E741845C0853731F43FEE68
:10051000B32EB2222AE030E025C099EFB92EB222E4
:100520008F36C1F0803720F4883509F0B5C00DC092
:10053000803721F0883709F0AFC002C020E1B22A2D
:10054000B4FE0BC084E0B82A08C0B4FE09C0E6E0DF
:10055000BE2A06C028E030E005C020E130E002C03D
:1005600020E132E0B7FE08C0F8016081718182812C
:1005700093810C5F1F4F07C0F8016081718180E09B
:1005800090E00E5F1F4FA2010E949903782E74180D
:10059000FFE7BF22B6FE0BC02EEFB2227E1438F466
:1005A000B4FE07C0B2FC05C08FEEB82202C0A72C73
:1005B00001C0AE2C8B2D90E0B4FE0DC0FE01E70D06
:1005C000F11D2081203319F4E9EEBE2209C0A39465
:1005D000B2FE06C004C086789070009709F0A3941C
:1005E0008B2C9924B3FC14C0B0FE0FC0AF1428F4B8
:1005F000E72CEF0CEA18AF2C08C0E72C06C080E20D
:1006000090E0B6010E946D03A394AF14C0F304C040
:10061000AF1410F4FA1801C0FF2484FE0FC080E369
:1006200090E0B6010E946D0382FE1FC081FE03C0F0
:1006300088E590E010C088E790E00DC0C40186789E
:100640009070009791F081FC02C080E201C08BE2C3
:10065000B7FC8DE290E0B6010E946D0306C080E316
:1006600090E0B6010E946D03EA947E14C0F37A9480
:10067000F201E70DF11D808190E0B6010E946D034B
:100680007720A9F706C080E290E0B6010E946D03D2
:10069000FA94FF20C1F737CEF6012681378102C0D8
:1006A0002FEF3FEFC9012C96E2E10C941304FC01FB
:1006B0000590615070400110D8F7809590958E0F8D
:1006C0009F1F0895FC016150704001900110D8F700
:1006D000809590958E0F9F1F08950F931F93CF9332
:1006E000DF938C01EB018B8181FF1BC082FF0DC06A
:1006F0002E813F818C819D812817390764F4E88120
:10070000F9810193F983E88306C0E885F985802F94
:100710000995009731F48E819F8101969F838E8386
:1007200002C00FEF1FEFC801DF91CF911F910F9112
:100730000895FA01AA27283051F1203181F1E89477
:100740006F936E7F6E5F7F4F8F4F9F4FAF4FB1E0C4
:100750003ED0B4E03CD0670F781F891F9A1FA11DBF
:10076000680F791F8A1F911DA11D6A0F711D811DC0
:10077000911DA11D20D009F468943F912AE0269F85
:1007800011243019305D3193DEF6CF010895462FE4
:100790004770405D4193B3E00FD0C9F7F6CF462FC5
:1007A0004F70405D4A3318F0495D31FD405241932E
:1007B00002D0A9F7EACFB4E0A695979587957795EB
:1007C0006795BA95C9F700976105710508959B0172
:1007D000AC010A2E06945795479537952795BA95FB
:1007E000C9F7620F731F841F951FA01D08952F92D4
:1007F0003F924F925F926F927F928F929F92AF92B1
:10080000BF92CF92DF92EF92FF920F931F93CF93FD
:10081000DF93CDB7DEB7CA1BDB0B0FB6F894DEBF94
:100820000FBECDBF09942A88398848885F846E84BA
:100830007D848C849B84AA84B984C884DF80EE8004
:10084000FD800C811B81AA81B981CE0FD11D0FB60D
:10085000F894DEBF0FBECDBFED010895F894FFCF31
:0408600025690010F6
:00000001FF
