:100000000C942A000C9434000C9434000C943400AA
:100010000C9434000C9434000C9434000C94340090
:100020000C9434000C9434000C9434000C94340080
:100030000C9434000C9434000C9434000C94340070
:100040000C9434000C9434000C9434000C94340060
:100050000C94340011241FBECFE5D8E0DEBFCDBF25
:100060000E9467000C946E000C94000081E085BB38
:1000700080E382BB83EC99E00197F1F700C00000B8
:1000800082E085BB86E382BBE3ECF9E03197F1F7D0
:1000900000C0000094E095BB82BBE3ECF9E031972F
:1000A000F1F700C0000098E095BB82BB83EC99E0BB
:1000B0000197F1F700C0000080E185BB86E082BBBC
:1000C000E3ECF9E03197F1F700C0000008958FE10B
:1000D00084BB8FE781BB0E943600FDCFF894FFCF31
:00000001FF
