:100000000C942A000C9434000C9434000C943400AA
:100010000C9434000C9434000C9434000C94340090
:100020000C9434000C9434000C9434000C94340080
:100030000C9434000C9434000C9434000C94340070
:100040000C9434000C9434000C9434000C94340060
:100050000C94340011241FBECFE5D8E0DEBFCDBF25
:100060000E94A7000C94AE000C94000081E085BBB8
:1000700012BA83EC99E00197F1F700C0000082E02A
:1000800085BB86E782BBE3ECF9E03197F1F700C06E
:10009000000094E095BB82BBE3ECF9E03197F1F707
:1000A00000C0000098E095BB82BB83EC99E001970B
:1000B000F1F700C0000080E185BB80E782BBE3EC84
:1000C000F9E03197F1F700C0000008959BE792BB7B
:1000D0008FE185BBE1EEF4E03197F1F700C000005D
:1000E0008DE782BB84E085BBE1EEF4E03197F1F768
:1000F00000C0000092BB85BBE1EEF4E03197F1F760
:1001000000C0000097E792BB85BBE1EEF4E03197B9
:10011000F1F700C000009FE692BB85BBE1EEF4E082
:100120003197F1F700C000009FE592BB85BBE1EE7F
:10013000F4E03197F1F700C000009FE392BB85BB6C
:1001400081EE94E00197F1F700C0000008958FE17F
:1001500084BB8FE781BB0E946600FDCFF894FFCF80
:00000001FF
