:100000000C942A000C9434000C9434000C943400AA
:100010000C9434000C9434000C9434000C94340090
:100020000C9434000C9434000C9434000C94340080
:100030000C9434000C9434000C9434000C94340070
:100040000C9434000C9434000C9434000C94340060
:100050000C94340011241FBECFE5D8E0DEBFCDBF25
:100060000E9467000C946E000C94000081E08BBB32
:1000700080E388BB87EA91E60197F1F700C00000B2
:1000800082E08BBB86E388BBE7EAF1E63197F1F7C4
:1000900000C0000094E09BBB88BBE7EAF1E6319723
:1000A000F1F700C0000098E09BBB88BB87EA91E6AF
:1000B0000197F1F700C0000080E18BBB86E088BBB0
:1000C000E7EAF1E63197F1F700C0000008958FE10B
:1000D0008ABB8FE787BB0E943600FDCFF894FFCF25
:00000001FF
