:100000000C942A000C9447000C9447000C94470071
:100010000C9447000C9447000C9447000C94470044
:100020000C9447000C9447000C9447000C94470034
:100030000C9447000C9447000C9447000C94470024
:100040000C9447000C9447000C9447000C94470014
:100050000C94470011241FBECFE5D8E0DEBFCDBF12
:1000600010E0A0E6B0E0E0ECF2E002C005900D92F6
:10007000A436B107D9F710E0A4E6B0E001C01D92A4
:10008000A536B107E1F70E94FB000C945E010C94C9
:10009000000082B3806F82BB929A81B38F7081BB64
:1000A00080B39298929A90B3929892959F70807F25
:1000B000892B089592B39F70282F207F292B22BB74
:1000C000929A92988295807F982B92BB929A92985E
:1000D000089582BB929A929808950F931F93DF938D
:1000E000CF930F92CDB7DEB78E010F5F1F4F909861
:1000F000919A0E9449008983F80180818823BCF38A
:1001000091988FEF81BB0F90CF91DF911F910F914D
:1001100008958FEF81BB81BB909891989298929AA5
:10012000959A92980E946D0088E20E945A000E945F
:100130006D0090988EE00E945A000E946D00909889
:1001400086E00E945A000E946D000895909882E017
:100150000E945A000E946D00089590988295880F21
:10016000880F807C860F815C0E945A000E946D007F
:100170000895909881E00E945A000E946D000895B1
:10018000909A0E945A000E946D0008951F93CF9389
:10019000DF93EC018881882351F010E00E94C000B9
:1001A0001F5FFE01E10FF11D80818823B9F7DF9108
:1001B000CF911F91089587B3806A87BBC69A87ED58
:1001C0008DB987B3876087BB88B3876088BB089584
:1001D00098B321E030E002C0220F331F8A95E2F786
:1001E000822F8095982398BB6FB9779BFECF88B3F9
:1001F000282B28BB0895CF92DF92EF92FF920F93A6
:100200001F93CF93DF930E94DB0087EA91E601976B
:10021000F1F700C00000C0E6D0E001E610E00F2ECC
:10022000F0E5DF2EF02D0F2EF2E6EF2EF0E0FF2EA0
:10023000F02D0F2EF0EACF2EF02D6881862F8F5FE4
:10024000888380E00E94E8008881813508F0188268
:10025000A3ECB9E01197F1F700C00000F80160814C
:10026000862F8F5F808381E00E94E800D8018C9107
:10027000813A08F0DC92E3ECF9E03197F1F700C045
:100280000000D7016C91862F8F5F8C9382E00E94D3
:10029000E800F7018081813F08F0C08283EC99E09B
:1002A0000197F1F700C000008FE996E8A1E08150C6
:1002B0009040A040E1F700C00000BFCFF894FFCF0E
:0402C0000050A0004A
:00000001FF
